:020000040800F2
:100000000080002025090008790800087B08000806
:100010007D0800087F080008810800080000000033
:10002000000000000000000000000000712D00082A
:100030008308000800000000012E0008452E00087B
:100040006D0900086D0900086D0900086D090008B8
:100050006D0900086D0900086D0900086D090008A8
:100060006D0900086D0900086D0900086D09000898
:100070006D0900086D0900086D0900086D09000888
:100080006D0900086D0900086D0900086D09000878
:100090006D0900086D0900086D0900086D09000868
:1000A000000000006D0900086D0900086D090008D6
:1000B0006D0900086D090008850800086D09000831
:1000C0006D0900086D0900086D0900086D09000838
:1000D0006D0900086D0900086D0900086D09000828
:1000E0006D0900086D0900086D0900086D09000818
:1000F0006D09000800000000000000000000000082
:1001000000000000000000000000000000000000EF
:1001100000000000000000000000000000000000DF
:1001200000000000000000000000000000000000CF
:0C01300000000000000000005FF808F173
:1001400010B5054C237833B9044B13B10448AFF311
:1001500000800123237010BD740000200000000007
:10016000C43C000808B5034B1BB103490348AFF377
:10017000008008BD0000000078000020C43C00089A
:1001800053B94AB9002908BF00281CBF4FF0FF31FE
:100190004FF0FF3000F076B9ADF1080C6DE904CEF8
:1001A00000F006F8DDF804E0DDE9022304B0704752
:1001B0002DE9F047089E0D4604468846002B4DD198
:1001C0008A42944668D9B2FA82F252B101FA02F335
:1001D000C2F1200120FA01F10CFA02FC41EA030805
:1001E00094404FEA1C41B8FBF1F71FFA8CFE01FB6B
:1001F000178807FB0EF0230C43EA084398420AD9FC
:100200001CEB030307F1FF3580F01E81984240F29A
:100210001B81023F63441B1AB3FBF1F001FB103357
:1002200000FB0EFEA4B244EA0344A6450AD91CEB27
:10023000040400F1FF3380F00981A64540F20681F5
:10024000644402380021A4EB0E0440EA07401EB1CA
:100250000023D440C6E90043BDE8F0878B4208D9AB
:10026000002E00F0EE800021C6E900050846BDE83A
:10027000F087B3FA83F100294AD1AB4202D382421C
:1002800000F2FC80841A65EB030301209846002EDF
:10029000E2D0C6E90048DFE702B9FFDEB2FA82F237
:1002A000002A40F09180A1EB0C0001214FEA1C478D
:1002B0001FFA8CFEB0FBF7F307FB1300250C45EA91
:1002C00000450EFB03F0A84208D91CEB050503F11D
:1002D000FF3802D2A84200F2CE8043462D1AB5FB69
:1002E000F7F007FB10550EFB00FEA4B244EA0544EC
:1002F000A64508D91CEB040400F1FF3502D2A6453F
:1003000000F2B6802846A4EB0E0440EA03409EE7C4
:10031000C1F120078B4022FA07FC4CEA030C25FAB6
:1003200007FA4FEA1C49BAFBF9F820FA07F309FB70
:1003300018AA8D401FFA8CFE1D4300FA01F308FB3A
:100340000EF02C0C44EA0A44A04202FA01F20BD946
:100350001CEB040408F1FF3A80F08880A04240F2D0
:100360008580A8F102086444241AB4FBF9F009FB63
:10037000104400FB0EFEADB245EA0444A64508D980
:100380001CEB040400F1FF356CD2A6456AD9023893
:10039000644440EA0840A0FB0295A4EB0E04AC4282
:1003A000C846AE4656D353D0002E69D0B3EB0802F0
:1003B00064EB0E0422FA01F304FA07F71F43CC4062
:1003C000C6E90074002147E70CFA02FCC2F12001E3
:1003D00025FA01F34FEA1C4720FA01F195400D433D
:1003E000B3FBF7F107FB11331FFA8CFE280C40EA30
:1003F000034001FB0EF3834204FA02F408D91CEB1C
:10040000000001F1FF382FD283422DD90239604418
:10041000C01AB0FBF7F307FB1300ADB245EA004585
:1004200003FB0EF0A84208D91CEB050503F1FF38C9
:1004300016D2A84214D9023B6544281A43EA014166
:1004400038E73146304607E72F46E4E61846F9E636
:100450004B45A9D2B9EB020865EB0C0E0138A3E7B6
:100460004346EAE7284694E74146D1E7D0467BE792
:100470006444023847E7023B65442FE7084606E735
:100480003146E9E6704700BF07B501F07DFF084D32
:10049000084C0190284603F0AFF82046012100F0F7
:1004A000A4FB4FF47A7101A802F078F8F2E700BFDC
:1004B000DC3C00080000024007B501F065FF084D74
:1004C000084C0190284603F097F82046022100F0DE
:1004D0008CFB4FF4487101A802F060F8F2E700BF0E
:1004E000DF3C00080000024008B5012001F0A8F937
:1004F000FBE7000007B54FF6FF730190012201A949
:10050000024801F0DAF803B05DF804FB9400002023
:1005100000B593B03022002106A802F062FF142239
:100520000021684602F05DFF134A0121136805A807
:1005300023F4C05343F40063136010234FF42042AC
:1005400005930023CDE90B13CDE90D2300F096FBB5
:10055000014608B172B6FEE70F23CDE90200CDE9EE
:1005600000300490684600F0DBFD08B172B6FEE78B
:1005700013B05DF804FB00BF007000402DE9F041AE
:100580008AB005AD00F0F3F9FFF7C2FF1422002195
:10059000284602F026FF3D4B0321DA693C4842F031
:1005A0002002DA61DA69002402F020020392039A41
:1005B000DA69032642F00102DA61DB69002203F006
:1005C00001030493049B00F00BFB01234FF4E1387B
:1005D0000C2729462E48CDE90563CDE9074400F0F4
:1005E00039FA2C482C4BC0E90244C0E90038C0E974
:1005F00005740461C46101F031F8034608B172B6B4
:10060000FEE72648264AC0E90233C0E90028C0E9CF
:100610000437C0E9063301F021F8044608B172B688
:10062000FEE701F095F821461E4A1F4801F0ACF89C
:100630001E4BC822186002ABCDE900631C4923465B
:100640001C4801F01CFE012808D04FF0500383F332
:100650001188BFF36F8FBFF34F8FFEE70223C822CD
:100660000093154923461548019501F008FE01281D
:1006700008D04FF0500383F31188BFF36F8FBFF39F
:100680004F8FFEE701F028FEFEE700BF0038024072
:10069000000002409400002000380140DC000020EF
:1006A00000440040F83C0008E904000890000020E5
:1006B000E23C0008B9040008E83C0008890400088E
:1006C0000268034B9A4201D100F060B9704700BF45
:1006D000000800401FB5184B0F215A6A6FF0010047
:1006E00042F000425A625A6A02F000420192019AB4
:1006F0001A6A42F001021A621A6A02F001020292B8
:10070000029A5A6A42F080525A625B6A002203F0EF
:1007100080530393039B00F05DF9084AD36823F4E8
:10072000E0631B041B0C43F0BF6343F40033D3604E
:1007300005B05DF804FB00BF0038024000ED00E0AA
:10074000142210B504468AB00DEB0200002102F01D
:1007500048FE23681E4A934221D11E4B1A6A42F476
:1007600080421A621A6A02F480420192019ADA699E
:1007700042F00102DA61DB6903F001030293029B9C
:100780004FF4C06305930223032106930723124805
:10079000CDE9081305A900F05DF90AB010BD0F4AB4
:1007A0009342FAD10B4B5A6A42F400325A625A6AA7
:1007B00002F400320392039ADA6942F00102DA612C
:1007C000DB6903F001030493049B0C23DAE700BF09
:1007D0000038014000380240000002400044004060
:1007E000204B70B55A6A88B042F004025A625B6AC4
:1007F000054603F00403029301A903A8029B00F03D
:1008000071FD069B43BB00F04DFD174E174B336047
:1008100040F2E733F360164BB0FBF3F3013B736038
:10082000002330463361B36000F0B5FD044680B963
:10083000304600F0D5FD044658B91E2000F0FCF803
:100840000F2D0DD8224629461E2000F0C3F8094B73
:100850001D60204608B070BD00F024FD4000D4E7C4
:100860000124F6E70038024024010020000800407F
:1008700040420F0008000020FEE7FEE7FEE7FEE72B
:10088000FEE77047014800F0D9BD00BF24010020F9
:1008900070B50D4614460E46731B9C4201DC204683
:1008A00070BDAFF3008006F8010BF5E770B50D469B
:1008B00014460E46731B9C4201DC204670BD16F8A0
:1008C000010BFFF717FEF5E74FF0FF3070474FF4CD
:1008D000005300204B607047012070470020704794
:1008E0000B4A0346116810B509B90A49116010682E
:1008F00009490A4C0344091B8B4206D902F040FC0B
:100900000C2303604FF0FF3010BD1360FCE700BF05
:1009100064010020801B00200080002000040000F3
:1009200070470000FFF7FCFF0B480C490C4A0023FE
:1009300002E0D458C4500433C4188C42F9D3094A95
:10094000094C002301E013600432A242FBD302F001
:1009500013FDFFF713FE7047000000207400002015
:10096000C43D000874000020801B0020FEE710B585
:10097000032000F01DF80F20FFF732FF044618B9DE
:10098000FFF7A8FE204610BD0124FBE7034A0449F7
:10099000136809680B441360704700BF68010020AA
:1009A00004000020014B1868704700BF6801002058
:1009B00007490302CA6803F4E06322F4E062120408
:1009C000120C134343F0BF6343F40033CB60704712
:1009D00000ED00E0164B30B5DC68C4F30224C4F12E
:1009E0000703251D042B28BF0423062D4FF0FF35D8
:1009F00098BF002405FA03F388BF033C21EA0303F0
:100A0000A34005FA04F422EA0402002843EA0203A0
:100A1000ACBF00F16040074A4FEA0313DBB2ABBF43
:100A200000F5614000F00F0080F80033135430BD32
:100A300000ED00E014ED00E0002808DB012342098E
:100A400000F01F0003FA00F0014B43F8220070474A
:100A500000E100E000232DE9F74FDFF878915E4CCC
:100A60000A6832FA03F502D103B0BDE8F08F012520
:100A700005FA03FE1EEA020200F0A2804FF0030C0A
:100A80004E684FEA430806F003056F1E0CFA08FC97
:100A9000012F6FEA0C0C34D8876807EA0C0ACF687C
:100AA00007FA08F747EA0A078760476827EA0E0E41
:100AB000C6F300179F4047EA0E074760C768022D3C
:100AC00007EA0C0E8F6807FA08F747EA0E07C760B7
:100AD00019D14FF00F0E4FEAD30A00EB8A0A03F048
:100AE000070BDAF820704FEA8B0B0EFA0BFE27EAA1
:100AF0000E0E0F6907FA0BF747EA0E07CAF82070C7
:100B000001E0032DDAD1076805FA08F507EA0C07BA
:100B10002F4316F4403F076052D04FF00F0CD9F826
:100B2000205023F0030745F00105C9F82050D9F8FB
:100B3000205007F1804705F00105019507F5803742
:100B400003F0030E019D4FEA8E0EBD680CFA0EFCF9
:100B500025EA0C0C214DA84234D005F58065A84249
:100B600032D005F58065A84230D005F58065A842F1
:100B70002ED005F58065A8420CBF0425052505FA91
:100B80000EF545EA0C05BD60D743A56816F4801F35
:100B90000CBF3D401543A560E56816F4001F0CBF6F
:100BA0003D401543E560656816F4003F0CBF3D40CD
:100BB000154365602568F60354BF3D401543256025
:100BC00001334DE70025DAE70125D8E70225D6E70E
:100BD0000325D4E700380240000401400000024031
:100BE0000AB1816170470904FBE7436901EA030226
:100BF00021EA030141EA0241816170471C4B82B046
:100C00009A6812F0F00F0CD000221A490B6823F0FA
:100C1000010313430B60086800F00100504002B06C
:100C200070475A6A144912F0805F0FD00A6802F4C4
:100C3000C052B2F5C05FE7D1B0F5404FE4D10D4AE4
:100C4000136843F0040313600122DEE75A6A42F09E
:100C500080525A625A6A02F080520192019A0A68DE
:100C6000596A02F4C05221F080515962E1E700BF95
:100C700000380240003C0240007000402DE9F7437C
:100C80000446002860D0914B02689E689F68D00798
:100C900006F00C0607F480374BD42368990700F15F
:100CA00097802368D80636D5002E40F0E080874D27
:100CB0002B68990502D5A369002B45D06B68206A83
:100CC00003F46043984240F2C080FFF797FF00288A
:100CD0003AD16B68226A23F4604313436B606B68FC
:100CE000E26923F07F4343EA02636B60774B9968C4
:100CF000236A5B0B5A1C4FF400439340C1F3031269
:100D000073498A5CD340734A1360734B1868FFF7CA
:100D100067FD002830D12368180700F1E1802368BF
:100D2000590700F10181606A002840F069810020C4
:100D300022E0082E02D00C2E08D13FB11B689A0386
:100D4000ABD56368002BA8D1012015E06268012AA9
:100D500015D11A6842F480321A60FFF723FE054667
:100D6000DFF86881D8F800309B0396D4FFF71AFEAD
:100D7000401B6428F6D9032003B0BDE8F083534D2F
:100D80002B68A2B923F480332B602B6823F48023D3
:100D90002B60FFF707FE80462B6898037FF57DAF39
:100DA000FFF700FEA0EB08006428F5D9E3E7052A69
:100DB0000BBF43F4802323F480332B602B600BBFE5
:100DC0002B682B6843F4803323F480232B60C4E723
:100DD000042E02D00C2E0FD177B93C4A1368990724
:100DE00002D5E368012BAFD15368216923F4F8538E
:100DF00043EA0123536054E7E268384BB2B1012261
:100E00001A60FFF7CFFD0746304D2B689A0707D5CC
:100E10006B68226923F4F85343EA02236B6040E7CE
:100E2000FFF7C0FDC01B0228EFD9A4E71A60FFF747
:100E3000B9FD0546254F3B689B077FF532AFFFF7AD
:100E4000B1FD401B0228F6D995E76B6823F4604397
:100E500003436B606B68E26923F07F4343EA0263FC
:100E60006B60FFF7CBFE00283FF440AF6CE7A26950
:100E70001A4BE2B101221A62FFF794FD0746134DA7
:100E80002B689A050DD56B68226A23F460431343DF
:100E90006B606B68E26923F07F4343EA02636B6037
:100EA00039E7FFF77FFDC01B0228E9D963E71A6223
:100EB000FFF778FD0546054F3B689B057FF52BAF97
:100EC000FFF770FD401B0228F6D954E700380240B6
:100ED0001C3D0008000000200800002000004742E0
:100EE0006269724B82B10122C3F88026FFF75AFD76
:100EF00005466F4F7B6B9A073FF511AFFFF752FD29
:100F0000401B0228F6D936E7C3F88026FFF74AFDD2
:100F10000546674F7B6B9B077FF501AFFFF742FDEF
:100F2000401B0228F6D926E7614B5A6AD00029D423
:100F30004FF001085A6A42F080525A625B6A03F02D
:100F400080530193019B5B4D2B68D9051DD5A36888
:100F5000574D012B29D16B6B43F480736B63FFF703
:100F600021FD41F288390546514F7B6B9B0541D5E8
:100F7000B8F1000F3FF4D7AE4D4A536A23F08053C7
:100F80005362D0E64FF00008DDE72B6843F480732E
:100F90002B60FFF707FD07462B68DA05D7D4FFF76C
:100FA00001FDC01B6428F7D9E5E6ABB96B6B41F2D4
:100FB000883923F480736B636B6B23F480636B63FA
:100FC000FFF7F0FC07466B6B9805D1D5FFF7EAFCFD
:100FD000C01B4845F7D9CEE6052B6B6B03D143F414
:100FE00080636B63B7E723F480736B636B6B23F4ED
:100FF0008063B3E7FFF7D6FC401B4845B5D9BAE696
:101000000C2E3AD00022294B02281A6627D1FFF76E
:10101000C9FC0646264D2B6899011AD4AA68D4E962
:101020000A3122F47D020B431343226B1343012246
:10103000AB601E4B1E4D1A66FFF7B4FC04462B68CE
:101040009A013FF574AEFFF7ADFC001B0228F6D9FC
:1010500091E6FFF7A7FC801B0228DCD98BE6FFF79F
:10106000A1FC0446124D2B689B017FF560AEFFF793
:1010700099FC001B0228F6D97DE601283FF47CAEDE
:101080000B4BA26A9B6803F4803191427FF45CAE03
:10109000E16A03F470128A427FF456AE226B03F4C5
:1010A000400393423FF443AE4EE600BF0000474288
:1010B000003802400070004008B5154B9A6802F0F5
:1010C0000C01082921D00C2903D0042915D111487D
:1010D00012E09B68104813F48033C2F38341415CF3
:1010E00014BF0E480B48C2F3815218BF0023A1FB66
:1010F00000010132FFF744F808BD5868C0F34230E0
:10110000431C4FF400409840F6E70448F4E700BF62
:10111000003802400024F400343D000800366E011F
:101120002DE9F0410D46044610B90120BDE8F081DB
:10113000574B1A6802F001028A422AD322689607A6
:1011400038D4D0073ED4524B1A6802F00102AA42AA
:1011500000F28C802268510700F19180130707D5B7
:101160004C4A2169936823F4605343EAC1039360B6
:10117000FFF7A2FFBDE8F041464B474A9B68C3F327
:101180000313D35CD840454B1860454B1868FFF7F4
:1011900027BB012902BF1A6842F004021A601A68CC
:1011A00022F001020A431A601B6803F001038B421C
:1011B000BBD1C3E73749A0688B6823F0F003034332
:1011C0008B60BEE76268334B022A1B681CD113F4A4
:1011D000003FAAD02F4E41F28838B36823F00303B2
:1011E0001343B360FFF7DEFB63680746022B18D199
:1011F000B36803F00C03082BA5D0FFF7D3FBC01B8B
:101200004045F5D9032091E7032A02D113F0007F6E
:10121000DFE7012A02D113F0020FDAE713F4007FAF
:10122000D7E7032B0AD1B36803F00C030C2B8AD049
:10123000FFF7B8FBC01B4045F5D9E3E7012B10D100
:10124000B36803F00C03042B3FF47DAFFFF7AAFB58
:10125000C01B4045F4D9D5E7FFF7A4FBC01B4045B0
:10126000D0D8B36813F00C0FF6D16CE71A6822F0EF
:1012700001021A601B68DA077FF56CAF55E7054974
:10128000E0688B6823F4E06303438B6066E700BF8C
:10129000003C0240003802401C3D000800000020D5
:1012A00008000020044B054A9B68C3F30223D35C6B
:1012B000034A1068D8407047003802402C3D0008AF
:1012C00000000020044B054A9B68C3F3C223D35C93
:1012D000034A1068D8407047003802402C3D00088F
:1012E000000000200F2303600B4B9A6802F00302FA
:1012F00042609A6802F0F00282609A6802F4E0624A
:10130000C2609B68DB0803F4E0630361034B1B6866
:1013100003F001030B60704700380240003C0240BC
:10132000B0F1804F036806D0184A904203D002F50E
:10133000806290420ED14A6823F07003B0F1804F72
:1013400043EA020311D0114A90420ED002F58062A6
:1013500090420AD00E4A904207D002F58062904235
:1013600003D002F58062904203D1CA6823F440732F
:1013700013430A6923F08003134303608B68C3623D
:101380000B68836201234361704700BF0004004083
:1013900000080140704710B50446F0B190F83930AC
:1013A00003F0FF021BB980F83820FFF7F3FF022398
:1013B000206884F83930211DFFF7B2FF0123002097
:1013C00084F83E3084F83A3084F83B3084F83C307E
:1013D00084F83D3084F8393010BD0120FCE700006E
:1013E00090F83930012B20D1022380F8393003687E
:1013F000DA68B3F1804F42F00102DA600AD00C4A99
:10140000934207D002F58062934203D002F5803206
:10141000934204D19A6802F00702062A03D01A68A0
:1014200042F001021A60002070470120704700BF9F
:10143000000400407047704770477047036810B55C
:101440001A69044691070ED5DA6892070BD56FF03A
:1014500002021A61012202769B6999075CD0FFF7AC
:10146000EAFF0023237623681A69520710D5DA6849
:1014700050070DD56FF004021A61022222769B6993
:10148000204613F4407F4DD0FFF7D5FF002323768D
:1014900023681A6911070FD5DA6812070CD56FF0A7
:1014A00008021A6104222276DB6920469B073FD09E
:1014B000FFF7C1FF0023237623681A69D00610D5F1
:1014C000DA68D1060DD56FF010021A610822227673
:1014D000DB69204613F4407F30D0FFF7ACFF0023D8
:1014E000237623681A69D20708D5DA68D00705D5AC
:1014F0006FF0010220461A61FFF7E2F823681A69CB
:10150000510608D5DA68520605D56FF0400220462C
:101510001A61FFF792FF10BDFFF78CFF2046FFF71F
:101520008BFF9EE7FFF786FF2046FFF785FFADE7BD
:10153000FFF780FF2046FFF77FFFBBE7FFF77AFF4B
:101540002046FFF779FFCAE710B504460268C16874
:10155000136923F440530B43136183680069D16816
:101560000343606921F416410343E06921F00C0153
:1015700003430B43D3605369A16923F440730B43C6
:1015800053611A4B9A4220D1FFF79CFE1923E1695F
:101590004343D4E90020B1F5004F4FF0640117D167
:1015A0004000B3FBF0F0B0FBF1F401FB1403DB00EF
:1015B0003233B3FBF1F303F007015B0001EB0411DD
:1015C00003F4F8730B44936010BDFFF76BFEDDE787
:1015D0008000B3FBF0F0B0FBF1F401FB14031B013E
:1015E0003233B3FBF1F303EB0413ECE700380140B3
:1015F000F8B504460E4617461D462268136836EABB
:10160000030301D1002028E06B1CF7D025B1FFF7C0
:10161000C9F9C01B8542F0D2226802F10C0353E8DD
:10162000003F23F4D0730C3242E8003021680028D8
:10163000F2D101F1140353E8003F23F0010301F15B
:10164000140040E80032002AF3D12023032084F85C
:10165000413084F8402084F84230F8BD10B504468B
:1016600048B390F8413003F0FF021BB980F84020E6
:10167000FFF766F82423226884F84130D3682046B7
:1016800023F40053D360FFF75FFF236800201A693B
:1016900022F490421A615A6922F02A025A61DA68E9
:1016A00042F40052DA602023606484F8413084F808
:1016B0004230606310BD0120FCE72DE9F8439946F4
:1016C00090F841300446202B0E4617463CD10029A5
:1016D0003CD0002A3AD021230025456480F84130CF
:1016E000FFF760F9A3688046B3F5805FA784E784BD
:1016F00003D123690BB935461E46E38C9BB253B91F
:101700004B46424640212046FFF772FF50B9202346
:1017100084F8413007E04B46424680212046FFF7DF
:1017200067FF10B10320BDE8F88322684EB935F891
:10173000023BC3F308035360E18C013989B2E184B1
:10174000DBE716F8013BF6E70220ECE70120EAE7C9
:10175000EFF3058313B16FF005007047EFF31083CB
:10176000002BF8D1074B1868022806D1EFF311833C
:10177000002BF0D14FF0FF3070470028FAD1012242
:101780001A60704728040020F0B51446002287B084
:101790000B460592EFF3058252BBEFF310823ABB82
:1017A000264A1268022A02D1EFF3118202BBF8B175
:1017B00000228DF81320002C30D0216809B90DF1DA
:1017C0001301A569002D08BF18256A1E372AAC46EB
:1017D0002AD86268D20727D4666966B1B208D4E90C
:1017E000027E57B1BEF1BB0F02D9246904B1EEB934
:1017F000059807B0F0BD8022F1E7BEF1000FF7D1E8
:101800002469002CF4D105ACCDE900C492B200F0FB
:1018100036FD01281CBF00230593E9E74FF0180CA3
:1018200080220DF11301EEE70020E2E7CDE9014748
:10183000009500F0EDFC0590DAE700BF28040020D9
:1018400008B5EFF3058313B16FF0050008BDEFF3A2
:101850001083002BF8D1074B1B68022B03D1EFF349
:101860001183002BF0D10028F0D000F0DFFE002023
:10187000ECE700BF28040020034B0360034B0B6020
:1018800080231360704700BF6C0300206C010020B0
:10189000034B0360034B0B604FF48073136070477E
:1018A0002C0800202C0400204FF0FF3200F1080328
:1018B000C0E90223436003610023036070470023F3
:1018C0000361704743689A684B608A609A68516008
:1018D00099600368086101330360704730B50C6894
:1018E000631C0AD103695A684A6091608B60596031
:1018F000036808610133036030BD00F1080213463C
:1019000052681568A542FAD9EDE70369D0E90112DA
:101910008A6051605968814208BF5A6000220261A2
:101920001A68013A1A601868704710B5044601F049
:1019300031FAA46B01F04EFAB4FA84F0400910BDFC
:10194000F8B51546026C0446866B52B9076847BB6A
:10195000406800F0A9FF0546676001362846A66387
:10196000F8BD65B9806801F02EFDA368226C1344B0
:101970006268A3609342F0D32368A360EDE7C06878
:1019800001F021FD226CE36851429B1A2268E3605A
:1019900093423EBF63685B18E360022D01D116B12C
:1019A000013E0025D9E73546D7E703461A6C0846BD
:1019B00010B462B1DC68596814448C4228BF1968BD
:1019C000DC6028BFD960D96810BC01F0FCBC10BC39
:1019D000704770B5044601F0DDF994F8455004F104
:1019E00024066DB2002D14DCFF2384F8453001F08D
:1019F000F1F901F0CFF994F8445004F110066DB2FA
:101A0000002D12DCFF2384F84430BDE8704001F063
:101A1000E1B9636A002BE7D0304600F0A7FE08B1B9
:101A200000F02CFF013D6DB2DCE72369002BE9D00B
:101A3000304600F09BFE08B100F020FF013D6DB282
:101A4000DEE738B50D46044640B94FF0500383F346
:101A50001188BFF36F8FBFF34F8FFEE701F09AF944
:101A6000D4E90F314B432268D0185B1A13446060ED
:101A7000E3600020FF23A063A26084F8443084F870
:101A80004530A5B9236973B104F1100000F06EFE72
:101A900048B14FF0E0234FF08052C3F8042DBFF35C
:101AA0004F8FBFF36F8F01F095F9012038BD04F11E
:101AB0001000FFF7F9FE04F12400FFF7F5FEF2E74E
:101AC00037B50D461C4640B94FF0500383F31188DB
:101AD000BFF36F8FBFF34F8FFEE743B94FF0500353
:101AE00083F31188BFF36F8FBFF34F8FFEE74AB1C7
:101AF00091B94FF0500383F31188BFF36F8FBFF399
:101B00004F8FFEE741B14FF0500383F31188BFF3CD
:101B10006F8FBFF34F8FFEE750230193019B502B34
:101B200008D04FF0500383F31188BFF36F8FBFF3DA
:101B30004F8FFEE70121002D08BF2246C4E90F05A3
:101B400084F8461020462260FFF77BFF20469DF870
:101B5000183084F84C3003B030BD2DE9F04385B027
:101B600088461F460446019240B94FF0500383F364
:101B70001188BFF36F8FBFF34F8FFEE751B9036C2E
:101B800043B14FF0500383F31188BFF36F8FBFF35E
:101B90004F8FFEE7022F0BD1E36B012B08D04FF0E4
:101BA000500383F31188BFF36F8FBFF34F8FFEE7AE
:101BB00000F06AFE064650B9019B4BB14FF050034E
:101BC00083F31188BFF36F8FBFF34F8FFEE70026BB
:101BD0004FF0000937E0019D1DB901F0FBF800202E
:101BE00052E016B902A800F001FE01F0F3F800F08F
:101BF000C3FB01F0CFF894F84430FF2B08BF84F802
:101C0000449094F84530FF2B08BF84F8459001F0CC
:101C1000E1F801A902A800F0F5FD00284AD101F081
:101C2000B9F8A26BE36B9A4231D101F0D3F8019974
:101C300004F1100000F060FD2046FFF7CAFE00F03E
:101C400039FC60B3012601F0A5F8A26BE36B9A4260
:101C500001D3022FBFD13A4641462046FFF770FE1E
:101C6000636A1BB104F1240000F080FD48B14FF01D
:101C7000E0234FF08052C3F8042DBFF34F8FBFF322
:101C80006F8F01F0A7F8012005B0BDE8F08301F0E7
:101C9000A1F82046FFF79DFE00F00CFCD2E74FF0C4
:101CA000E0234FF08052C3F8042DBFF34F8FBFF3F2
:101CB0006F8FC7E72046FFF78CFE00F0FBFB8EE737
:101CC0002DE9F843894690461F46044640B94FF037
:101CD000500383F31188BFF36F8FBFF34F8FFEE77D
:101CE00051B9036C43B14FF0500383F31188BFF334
:101CF0006F8FBFF34F8FFEE7022F0BD1E36B012BEA
:101D000008D04FF0500383F31188BFF36F8FBFF3F8
:101D10004F8FFEE701F01AF9EFF311864FF05003F1
:101D200083F31188BFF36F8FBFF34F8FA26BE36B09
:101D30009A4201D3022F22D194F845503A4649469F
:101D400020466DB2FFF7FCFD6B1C13D1636A0BB923
:101D500001200BE004F1240000F008FD0028F7D07A
:101D6000B8F1000FF4D00120C8F8000086F3118804
:101D7000BDE8F88301356DB284F84550E8E70020EE
:101D8000F4E72DE9FF410F460446019240B94FF0B8
:101D9000500383F31188BFF36F8FBFF34F8FFEE7BC
:101DA00051B9036C43B14FF0500383F31188BFF373
:101DB0006F8FBFF34F8FFEE700F066FD064650B908
:101DC000019B4BB14FF0500383F31188BFF36F8F2A
:101DD000BFF34F8FFEE700264FF000083DE0019D66
:101DE0001DB900F0F7FF002056E016B902A800F078
:101DF000FDFC00F0EFFF00F0BFFA00F0CBFF94F81D
:101E00004430FF2B08BF84F8448094F84530FF2B02
:101E100008BF84F8458000F0DDFF01A902A800F0AA
:101E2000F1FC002841D12046FFF77FFDB8B30199AE
:101E300004F1240000F060FC2046FFF7CAFD00F02A
:101E400039FB48B94FF0E0234FF08052C3F8042D1E
:101E5000BFF34F8FBFF36F8F012600F09BFFA56B81
:101E6000002DBCD039462046013DFFF79EFDA563FD
:101E7000236973B104F1100000F078FC48B14FF011
:101E8000E0234FF08052C3F8042DBFF34F8FBFF310
:101E90006F8F00F09FFF012004B0BDE8F081204665
:101EA000FFF797FD00F006FBD6E72046FFF791FD10
:101EB00000F000FB2046FFF738FD0028CCD092E769
:101EC000002310B5064A52F833402CB942F83310BB
:101ED00002EBC303586010BD0133082BF3D1FAE7BE
:101EE000E808002070B504460D46164600F052FF83
:101EF00094F84430FF2B04BF002384F8443094F856
:101F00004530FF2B04BF002384F8453000F062FF0A
:101F1000A36B2BB93246294604F1240000F006FCDD
:101F20002046BDE87040FFF754BD00002DE9F041A8
:101F3000044600F02FFF304B304E1A68304F01320C
:101F40001A603568002D4BD134601B68012B1FD1FE
:101F5000B84640460135FFF7A7FC382D08F11408B4
:101F6000F7D1DFF8A080284D4046FFF79DFC2846BA
:101F7000FFF79AFC2548FFF797FC2548FFF794FCEC
:101F80002448FFF791FC244BC3F80080234B1D60CD
:101F90001420234A136801331360224A63641168D2
:101FA000E36A8B4200FB037004F1040188BF1360F5
:101FB000FFF788FC00F00EFF1B4B1B6873B1336802
:101FC000DA6AE36A9A4209D24FF0E0234FF0805276
:101FD000C3F8042DBFF34F8FBFF36F8FBDE8F081BF
:101FE000114B1B68002BD3D13368DA6AE36A9A423B
:101FF00098BF3460CCE700BF940D00202809002072
:1020000034090020AC0D0020C00D0020DC0D0020A4
:10201000080E0020F40D00202C09002030090020BB
:10202000A40D0020A80D0020F00D0020F8B50646F4
:10203000144B154D1C6828680F460430FFF765FCEB
:10204000731C07D137B1296810480431BDE8F84046
:10205000FFF738BC2B68A4195C6007D30C4B1868D9
:102060002968BDE8F8400431FFF738BC094B18680F
:1020700029680431FFF732FC074B1A68A24288BF77
:102080001C60F8BD1C0E002028090020F40D002063
:10209000300900202C090020D40D0020064A1368C6
:1020A0001968064B19B94FF0FF321A607047126871
:1020B000D268D2685268F8E72C090020D40D0020BD
:1020C00010B50446543001F0ADFA94F8B9303BB97C
:1020D000206B01F01DF82046BDE8104001F018B853
:1020E000012BF8D0022B08D04FF0500383F3118856
:1020F000BFF36F8FBFF34F8FFEE710BD80B5134C5A
:10210000134F144D236873B9134B1B68012BF8D977
:102110004FF0E0234FF08052C3F8042DBFF34F8FF0
:10212000BFF36F8FEDE700F035FEFB68DE68301D12
:10213000FFF7EBFB2B68013B2B602368013B23601F
:1021400000F048FE3046FFF7BBFFDBE7980D0020AC
:10215000080E0020940D0020340900202DE9F047DE
:102160000D46DDE909844FEA82094A460646A52163
:10217000206B1F4601F035F9226BA9F10409914447
:102180006B1E29F0070904F134020F3513F8011F03
:1021900002F8011B09B1AB42F8D1089D4FF0000ACB
:1021A000372D28BF3725201DC4E9135AE56284F86E
:1021B00043A0FFF784FBC5F1380504F11800FFF7D1
:1021C0007EFB60225146C4F8B4A02461A56164621C
:1021D00084F8B8A004F1540001F003F9094B3A4621
:1021E000A365094B3146E365084B4846236600F07A
:1021F000ADFD2060B8F1000F01D0C8F80040BDE887
:10220000F08700BF703D0008903D0008503D000879
:1022100070B586B0DDE90B5445B94FF0500383F338
:102220001188BFF36F8FBFF34F8FFEE744B94FF0B4
:10223000500383F31188BFF36F8FBFF34F8FFEE717
:10224000BC260596059EBC2E08D04FF0500383F3A4
:102250001188BFF36F8FBFF34F8FFEE72563022511
:1022600084F8B95004AD01950A9D02940095FFF7DA
:1022700075FF2046FFF75AFE049806B070BD2DE9A1
:10228000F043074685B0900088461646994600F010
:10229000AFFE0546E8B1BC2000F0AAFE0446A8B196
:1022A000002380F8B9300D9B056301930C9B3246E7
:1022B00041460290009338464B46FFF74FFF2046B9
:1022C000FFF734FE012005B0BDE8F083284600F09A
:1022D0001FFF4FF0FF30F6E710B5002488B007AAC3
:1022E00006A905A8CDE90544FFF7C6FA059B079A9C
:1022F0000293069B1949CDE9004319482346FFF78D
:1023000087FF40B300F064FB012819D14FF0500360
:1023100083F31188BFF36F8FBFF34F8F114B124AB6
:102320001B68543313604FF0FF32104B1A60104B90
:102330001860104B1C6008B0BDE8104000F0AABD4A
:10234000013008D14FF0500383F31188BFF36F8F32
:10235000BFF34F8FFEE708B010BD00BF3D3D000842
:10236000FD2000082809002010000020D40D0020C6
:10237000F00D00201C0E0020024A13680133136088
:10238000704700BFA00D0020014B1868704700BFC8
:102390001C0E00202DE9F84F3B4B1B68002B6DD124
:1023A0003A4B1D6801351D60BDB9394B1A6812687A
:1023B00042B14FF0500383F31188BFF36F8FBFF327
:1023C0004F8FFEE7334A1968106818601160324A6F
:1023D000136801331360FFF761FE304E0024336849
:1023E0002F4FAB4210D914222E4B1B68DB6A53438C
:1023F000FB58022B28BF01242B4B1B68002B0CBF62
:1024000020460120BDE8F88FDFF88490DFF89CA01B
:10241000D9F800301B681BB94FF0FF333360E2E797
:10242000D9F80030DB68D3F80CB0DBF80420954213
:1024300001D23260D7E70BF104084046FFF765FA96
:10244000DBF828201AB10BF11800FFF75EFA14230D
:10245000DBF82C00DAF800204146904288BFCAF829
:10246000000003FB0070FFF72DFA0E4BDBF82C2069
:102470001968CB6A9A4228BF0124C9E70C4A002494
:10248000136801331360B7E7A00D00201C0E002075
:102490002C09002030090020D80D0020D40D002088
:1024A0003409002028090020200E0020A80D00205B
:1024B0009C0D00202DE9F041304C236843B94FF0CA
:1024C000500383F31188BFF36F8FBFF34F8FFEE785
:1024D00000F060FC2368013B236024682CB10024D9
:1024E00000F078FC2046BDE8F081254B1B68002BEE
:1024F000F5D0244D244EDFF894801DE0EB68DC68B5
:10250000271D04F11800FFF700FA3846FFF7FDF920
:102510001420E36A326800FB03809342394688BF87
:102520003360FFF7CFF91A4BE26A1B68DB6A9A4205
:1025300002D30122174B1A602B68002BDED10CB19D
:10254000FFF7ACFD144D2C6844B10127114EFFF785
:1025500021FF00B13760013CF9D12C600D4B1B68A5
:10256000002BBCD04FF0E0234FF08052C3F8042D75
:10257000BFF34F8FBFF36F8F0124B1E7A00D002091
:10258000940D0020DC0D0020A80D0020340900204F
:1025900028090020200E00209C0D002010B540B915
:1025A0004FF0500383F31188BFF36F8FBFF34F8F4A
:1025B000FEE741B94FF0500383F31188BFF36F8FEB
:1025C000BFF34F8FFEE7174B1B6843B14FF050032B
:1025D00083F31188BFF36F8FBFF34F8FFEE7FFF7D1
:1025E000CBFE114B04681A6863182CBF012100212F
:1025F000944203600ED971B9FFF75CFF48B94FF000
:10260000E0234FF08052C3F8042DBFF34F8FBFF388
:102610006F8F10BD09B99A42EED20021981AFFF7C8
:1026200005FDE9E7A00D00201C0E002008B550B9FB
:102630004FF0E0234FF08052C3F8042DBFF34F8FCB
:10264000BFF36F8F08BD0A4B196841B14FF05003BB
:1026500083F31188BFF36F8FBFF34F8FFEE7FFF750
:102660008BFEFFF7E3FCFFF725FF0028E0D0E9E74A
:10267000A00D00201A4B70B51A681A4B12B1012236
:102680001A6070BD1426184D1A602A68174906FB97
:1026900002F3CC58C818B4B14468083364680B44DA
:1026A0009C4208BF6368446008BF4360142303FB77
:1026B00002114B68D9680E4B19602A601B680D4ADD
:1026C00054331360DDE742B94FF0500383F31188B0
:1026D000BFF36F8FBFF34F8FFEE7013AD7E700BF1D
:1026E000A00D0020200E0020A80D0020340900209D
:1026F000280900201000002010B50C4640B94FF00A
:10270000500383F31188BFF36F8FBFF34F8FFEE742
:10271000054B19681831FFF7E1F82046BDE8104075
:102720000121FFF783BC00BF2809002038B50D4602
:10273000144640B94FF0500383F31188BFF36F8FF5
:10274000BFF34F8FFEE7084B19681831FFF7BAF84F
:10275000002C214608BF2846BDE8384018BF4FF07E
:10276000FF30FFF763BC00BF2809002038B5C368FD
:10277000DC6844B94FF0500383F31188BFF36F8FC7
:10278000BFF34F8FFEE704F118052846FFF7BDF8A9
:10279000104B1B68DBB9251D2846FFF7B6F80E4A1B
:1027A00014201168E36A8B42294688BF13600B4AE4
:1027B00000FB0320FFF786F8094BE26A1B68DB6A1F
:1027C0009A4285BF0120074B0020186038BD29467A
:1027D0000548EFE7A00D0020A80D002034090020D7
:1027E00028090020200E0020DC0D0020034B1B6870
:1027F0000360034B1B684360704700BFD80D002087
:102800001C0E002070B50C46054640B94FF0500331
:1028100083F31188BFF36F8FBFF34F8FFEE741B98A
:102820004FF0500383F31188BFF36F8FBFF34F8FC7
:10283000FEE700F0AFFA0F4B196823685A1C10D05E
:102840000D482E6800686A68864201D08A420FD916
:10285000881A83420AD95B1A134428462360FFF77B
:10286000C5FF002400F0B6FA204670BD00232360A7
:102870000124F7E71C0E0020D80D00200122014B97
:102880001A607047200E0020054B1B6833B1054BC2
:102890001B68002B0CBF02200020704701207047EE
:1028A000F00D0020A00D002038B508B9002038BD7B
:1028B0001B4B1C68844208D04FF0500383F31188EF
:1028C000BFF36F8FBFF34F8FFEE7236D43B94FF018
:1028D000500383F31188BFF36F8FBFF34F8FFEE771
:1028E000E16AE26C013B91422365DFD0002BDDD130
:1028F000251D2846FFF709F81420E36CC3F13802C0
:10290000A261084AE36211688B4288BF1360064ADD
:10291000294600FB0320FEF7D5FF0120C7E700BFD3
:1029200028090020A80D002034090020F7B5114C1B
:1029300000F030FA2568BDB90F4F104E3846FEF74B
:10294000B3FF3046FEF7B0FF0D4B10211F600D4B5B
:102950000A201E600C4A0D4B0095FFF7B1F820606D
:1029600010B10B49FFF7ACFA03B0BDE8F04000F03E
:1029700031BA00BF480F0020CC0E0020E00E00202E
:10298000240E0020280E00202C0E0020F80E00201F
:10299000423D0008914208B5416000610AD8D21A50
:1029A00083699A420DD2084B011D1868FEF796FF05
:1029B000002008BD9A4201D2994202D2034B011D68
:1029C000F3E70120F5E700BF280E0020240E0020C9
:1029D00010B588B0FFF7AAFF124B1B68B3B10024F3
:1029E00007AA06A905A8CDE90544FEF751FF059BF6
:1029F000079A0293069B0C49019302230B4800930C
:102A00002346FFF705FC0A4B186040B94FF050030E
:102A100083F31188BFF36F8FBFF34F8FFEE7012061
:102A200008B010BD480F0020473D0008352B0008B6
:102A30004C0F00207FB5164604461A4640B94FF0A9
:102A4000500383F31188BFF36F8FBFF34F8FFEE7FF
:102A50000D4D286880B10529CDE9001602940DDCE2
:102A6000FFF712FF0023022818BF1A46694608BF65
:102A7000089A2868FFF771F804B070BD0023694612
:102A8000FFF71EF9F8E700BF480F00202DE9F74FC8
:102A90000646FFF779FCDFF890800546D8F800304D
:102AA00083423ED94FF00009204F3B681A685AB95B
:102AB0001F4A116813600123396028463360C8F843
:102AC000005003B0BDE8F08FDB68DC68D3F800A0ED
:102AD00004F1040B5846FEF718FF636A2046984736
:102AE000E369012BE1D1A36953449A4506D25946C3
:102AF000386863602461FEF7F1FED6E70023524692
:102B000019462046CDF80090FFF794FF0028CCD15D
:102B10004FF0500383F31188BFF36F8FBFF34F8FD4
:102B2000FEE70023C9E700BFF40E0020240E0020BA
:102B3000280E00202DE9F043694E6A4F89B03368B2
:102B40001D68002D33D0DB68D3F80080FFF714FC3C
:102B500004A8FFF79BFF049C8146002C75D1002D33
:102B600058D040455CD3FFF7A5FC3368DB68DD68CF
:102B7000281DFEF7CAFEEB69012B1AD1A96943464D
:102B80004A4628464144FFF705FF90B12346424696
:102B9000214628460094FFF74DFF50B94FF05003EF
:102BA00083F31188BFF36F8FBFF34F8FFEE7A84603
:102BB000CCE728466B6A984700250022386804A9AC
:102BC000FFF7DFF80028BAD0049B0698002B3FDB04
:102BD000069C6369002B42D103A8FFF757FF049BB3
:102BE0000246092BE9D801A151F823F0672C00080F
:102BF000672C0008672C0008BB2B0008AB2C0008D2
:102C0000CF2C0008672C0008672C0008BB2B00089D
:102C1000AB2C0008344B1B681C68B4FA84F46409BC
:102C200022463868A8EB0901FFF75CF9FFF742FC80
:102C30000028C1D14FF0E0234FF08052C3F8042D9B
:102C4000BFF34F8FBFF36F8FB6E7FFF733FCB3E7E8
:102C5000059B07999847049B002BAEDBB8E7201D26
:102C6000FEF753FEB8E7A169059B20461944FFF71C
:102C700091FE0028A1D0636A20469847E369012BA2
:102C80009BD10023A269059920460A440095194664
:102C9000FFF7D0FE002890D14FF0500383F3118846
:102CA000BFF36F8FBFF34F8FFEE70599A16141B965
:102CB0004FF0500383F31188BFF36F8FBFF34F8F33
:102CC000FEE7034601442046FFF764FE75E794F8EB
:102CD0002C30002B7FF471AF204600F019FA6CE71E
:102CE000240E0020480F0020280E0020064800680F
:102CF000006880F3088862B661B6BFF34F8FBFF3F8
:102D00006F8F00DF00BF000008ED00E0002382B0FD
:102D100001930D4B1B68013308D04FF0500383F330
:102D20001188BFF36F8FBFF34F8FFEE74FF0500353
:102D300083F31188BFF36F8FBFF34F8F019B002B7D
:102D4000FCD002B0704700BF0C0000204FF0807331
:102D500040F8043C054B21F0010140F8081C40F804
:102D60000C3C40F8202C4038704700BF0D2D000867
:102D7000074B19680868B0E8F00F80F30988BFF3C3
:102D80006F8F4FF0000080F311884EF00D0E7047EA
:102D9000280900204FF0500383F31188BFF36F8F91
:102DA000BFF34F8F0A4A13680133012B13600ED112
:102DB0004FF0E023D3F8043DDBB243B14FF05003B2
:102DC00083F31188BFF36F8FBFF34F8FFEE7704718
:102DD0000C000020084A136843B94FF0500383F3F6
:102DE0001188BFF36F8FBFF34F8FFEE7013B136076
:102DF0000BB983F3118870470C000020000000001D
:102E0000EFF30980BFF36F8F0D4B1A6820E9F00FC5
:102E100010602DE908404FF0500080F31188FFF753
:102E200029FC4FF0000080F31188BDE808401968C4
:102E30000868B0E8F00F80F30988BFF36F8F704720
:102E40002809002008B54FF0500383F31188BFF321
:102E50006F8FBFF34F8FFFF79DFA28B14FF0E0233C
:102E60004FF08052C3F8042D002383F3118808BD6E
:102E70004FF0E02200234FF47A7113619361044B09
:102E80001B68B3FBF1F3013B5361072313617047E8
:102E90000000002013B5294B00211A78D2B201920C
:102EA000FF221A701B78264ADBB28DF803309DF89A
:102EB000033003F0500313700723224A13609DF878
:102EC00003005C1E00060CD411B1032B136011D05B
:102ED0004FF0500383F31188BFF36F8FBFF34F8F11
:102EE000FEE79DF8033001215B00DBB28DF8033073
:102EF0002346E4E74FF440731360019B0F4ADBB2B3
:102F000013704FF0E0230024D3F8202D42F4700218
:102F1000C3F8202DD3F8202D42F07042C3F8202DA5
:102F2000FFF7A6FF084B1C60FFF7E0FEFFF7A2FBD0
:102F30002046FFF7EBFE02B010BD00BF00E400E04A
:102F4000500F0020540F00200C000020EFF30583E9
:102F50000F2B0ED9114A9B5C114A12789A4208D95C
:102F60004FF0500383F31188BFF36F8FBFF34F8F80
:102F7000FEE74FF0E0230B4AD3F80C3D126803F450
:102F8000E063934208D94FF0500383F31188BFF3F5
:102F90006F8FBFF34F8FFEE7704700BFF0E300E095
:102FA000500F0020540F002010B50F4B1A461B681D
:102FB0008342FBD354681119884201BF416810460F
:102FC00009195160446801198B4207D10749096802
:102FD0008B421FBF59681B6809194160904203600A
:102FE00018BF106010BD00BF681B0020580F0020E4
:102FF0002DE9F0410446FFF7BFF93F483F4D036814
:103000000BBB3F494E071DBFCB1D23F0070301F546
:1030100040624FF440621CBF1946D21A00230A4492
:10302000384E083A22F0070273603160C2E900337B
:10303000531AC1E900230260334A1360334A136014
:103040004FF000432B602F68274250D1002C41D015
:1030500004F1080361071CBF23F007030833002BAA
:1030600045D02A4C26689E4241D3264A1568696895
:10307000994204D2D5F800C0BCF1000F15D1006808
:10308000A84234D02868C91A1029D2F800801060EC
:1030900012D9E81842070BD04FF0500383F3118880
:1030A000BFF36F8FBFF34F8FFEE72A466546DEE71B
:1030B00041606B60FFF778FF6B681349F61A1F4396
:1030C000002308682660864238BF0E6008F10804B5
:1030D0006F602B60FFF7EEF963070AD04FF05003E3
:1030E00083F31188BFF36F8FBFF34F8FFEE7002488
:1030F000F0E72046BDE8F081580F00205C1B00205F
:103100005C0F0020681B0020641B0020601B002057
:1031100010B5044670B3184A50F8043C12681342C4
:1031200008D14FF0500383F31188BFF36F8FBFF3C3
:103130004F8FFEE750F8081C41B14FF0500383F366
:103140001188BFF36F8FBFF34F8FFEE723EA0203AF
:1031500040F8043CFFF710F9084A54F8043C1168A1
:10316000A4F108000B441360FFF71EFFBDE81040F8
:10317000FFF7A0B910BD00BF5C1B0020601B002042
:10318000014B1868704700BF10000020002310B5E5
:103190000446C0E90033C0E904338360818143669B
:1031A000C2818361194608225C3000F01AF9054B90
:1031B00024626362044BA362044BE362044B236307
:1031C00010BD00BFFD3600081F3700085737000844
:1031D0007B370008014900F0AFB800BF4D3A000846
:1031E000682270B54D1E55430E4605F1740100F07E
:1031F00021F9044640B10021C0E900160C30A0605E
:1032000005F1680200F0EDF8204670BD014800F0BD
:10321000D8B800BF711B0020014800F0D3B800BF30
:10322000711B0020014800F0CCB800BF721B0020C9
:10323000014800F0C7B800BF721B002010B504465B
:10324000FFF7F0FFA3691BB1BDE81040FFF7F0BF27
:10325000C4E912332365134B134A1B68A262A342CD
:1032600008BF0123204608BFA36100F01FF860607B
:10327000204600F01BF8A060204600F017F800225E
:103280000421E0606068FFF781FF01220921A06846
:10329000FFF77CFF02221221E068FFF777FF01238E
:1032A000A361D1E7B03D0008D5310008F8B5074665
:1032B000FFF7ACFF1E4B1E68B36913B93046FFF72A
:1032C000BDFF4836D6E90134013B03D533680BB363
:1032D0003668F7E7B4F90C50D5B9164B04F158002D
:1032E000E360656600F06CF8FFF796FF0822294658
:1032F000C4E90155C4E904552560A56104F15C00E9
:1033000000F06FF8C4E90D55C4E912552046F8BD28
:103310006834D9E704213846FFF762FF044630607D
:103320000028D5D1FFF778FF0C233B60EEE700BF04
:10333000B03D00080100FFFF2DE9F843064688462E
:10334000002700F14804D4E90195B9F1010905D538
:103350002468002CF7D13846BDE8F883AB89012BEF
:1033600007D9B5F90E30013303D029463046C0479E
:1033700007436835E9E7000070B500260C4D0D4C99
:10338000641BA410A64209D100F09CFC00260A4D43
:103390000A4C641BA410A64205D170BD55F8043B2D
:1033A00098470136EEE755F8043B98470136F2E7B7
:1033B000BC3D0008BC3D0008BC3D0008C03D000805
:1033C0007047704770470A44914200F1FF3300D1C3
:1033D000704710B511F8014B914203F8014FF9D134
:1033E00010BD03460244934200D1704703F8011B0D
:1033F000F9E7000070B50E4E0C463168054611B96C
:1034000000F06CF930602146284600F067F9431C53
:103410000AD0C41C24F00304A04207D0211A284675
:1034200000F05CF9013001D14FF0FF34204670BD4F
:10343000781B00202DE9F041CD1C25F0030508354F
:103440000C2D38BF0C25002D074601DBA94205D9FC
:103450000C2300263B603046BDE8F0812E4E00F084
:10346000A9FB33681C4634BB29463846FFF7C2FF28
:10347000431C04464DD134682646002E40D12368B3
:103480003146384604EB030800F028F980453AD16C
:10349000216803356D1A25F0030508350C2D38BF5A
:1034A0000C2538462946FFF7A5FF01302BD02368AD
:1034B0002B4423600EE02268521B1ED40B2A16D91F
:1034C0006119A342256018BF5960636808BF316065
:1034D00062514B60384604F10B0600F071FB26F098
:1034E0000706231DF21AB6D09B1BA350B3E76268F0
:1034F000A3420CBF32605A60ECE723466468B2E72F
:1035000034467668B9E70C2338463B6000F058FB38
:10351000A1E72560DEE700BF741B002070B50E46F2
:10352000054618B183690BB9FFF788FEAB69AC6833
:1035300013B92846FFF782FE2C4B9C4220D16C68C1
:10354000636EDB0705D4A389980502D4A06DFFF74D
:1035500038FFA38919071DD52369DBB1013EA36894
:1035600016F8011F013BA36039BB002B38DA224655
:103570000A21284600F006F9013011D00A2511E091
:103580001B4B9C4201D1AC68DAE71A4B9C4208BF46
:10359000EC68D5E72146284600F058F90028DDD030
:1035A0004FF0FF35636EDA0705D4A3899B0502D47B
:1035B000A06DFFF707FF284670BD002B04DAA26953
:1035C0009A4206DC0A2904D023685A1C226019702A
:1035D000C5E72246284600F0D5F80130BFD1DFE725
:1035E0000A2523685A1C22601D70DBE7703D000825
:1035F000903D0008503D0008024B01461868FFF757
:103600008DBF00BF1000002038B50C460968054684
:1036100009B1FFF7F9FF21462846BDE8384000F020
:10362000D5BA00002C4B70B51B680446834251D0BC
:10363000436A43B1DB68002B4AD1636A196811B150
:10364000204600F0C3FA616911B1204600F0BEFACD
:10365000616A11B1204600F0B9FAA16B11B12046A0
:1036600000F0B4FAE16B11B1204600F0AFFA216C22
:1036700011B1204600F0AAFAE16D11B1204600F028
:10368000A5FAA16D11B1204600F0A0FA616B11B14D
:10369000204600F09BFAA369E3B12046A36A98474D
:1036A000A16CB9B12046BDE87040FFF7ADBF4959E4
:1036B00041B90435636A802DD968F8D1204600F0FD
:1036C00085FABAE70E68204600F080FA3146EFE747
:1036D0000025EFE770BD00BF1000002038B50023C3
:1036E000054D044608462B60FDF7FAF8431C02D14D
:1036F0002B6803B1236038BD7C1B002010B50C463D
:10370000B1F90E1000F0AAFA0028ABBF636DA389CF
:103710001B1823F48053ACBF6365A38110BD2DE952
:10372000F0411F468B890546DB050C46164605D53C
:1037300002230022B1F90E1000F0C4F9A389324629
:1037400023F48053A38128463B46B4F90E10BDE80C
:10375000F04100F069B810B50C46B1F90E1000F058
:10376000B1F9431CA38915BF606523F4805343F46A
:103770008053A38118BFA38110BDB1F90E1000F0D2
:10378000D3B80000F8B50E461446054618B1836953
:103790000BB9FFF753FD214B9C422BD16C68A369F9
:1037A000A360A3891A072FD523696BB32369206807
:1037B000F6B2C01A63693746834204DC21462846C4
:1037C00000F044F930BBA3680130013BA3602368DB
:1037D0005A1C22601E706369834204D0A389DB07F0
:1037E00006D50A2E04D12146284600F02FF988B9C3
:1037F0003846F8BD0A4B9C4201D1AC68CFE7094B73
:103800009C4208BFEC68CAE72146284600F01EF833
:103810000028CBD04FF0FF37EAE700BF703D00082B
:10382000903D0008503D000838B504460846114652
:103830000022054D2A601A46FDF738F8431C02D1D4
:103840002B6803B1236038BD7C1B0020324B70B560
:103850001D6806460C4625B1AB6913B92846FFF72B
:10386000EDFC2E4B9C420FD16C68A389B4F90C205F
:1038700019072CD4DD0611D40923336042F040032C
:103880004FF0FF30A3813EE0254B9C4201D1AC6854
:10389000EBE7244B9C4208BFEC68E6E7580712D5DB
:1038A000616B41B104F14403994202D0304600F00B
:1038B0008DF900236363A38923F02403A3810023EC
:1038C000636023692360A38943F00803A38123690C
:1038D0004BB9A38903F42073B3F5007F03D02146CD
:1038E000304600F027F9A089B4F90C2010F001034C
:1038F0000AD00023A36063695B42A361236943B9D3
:1039000010F08000BAD170BD810758BF6369A36011
:10391000F4E70020F7E700BF10000020703D00082A
:10392000903D0008503D000838B50023054D044681
:1039300008462B60FCF7C8FF431C02D12B6803B17B
:10394000236038BD7C1B00208A89F8B50546100726
:103950000C4657D44B68002B04DC0B6C002B01DCAD
:103960000020F8BDE66A002EFAD0002312F480523F
:103970002F682B6032D0606DA3895A0705D5636824
:10398000C01A636B0BB1236CC01A00230246E66AAF
:103990002846216AB047431CA38906D129681D29FE
:1039A0002CD8294ACA40D60728D50022626022694D
:1039B000D904226004D5421C01D12B6803B960658B
:1039C000616B2F600029CBD004F14403994202D0EF
:1039D000284600F0FBF800206063C2E7216A01235B
:1039E0002846B047411CC7D12B68002BC4D01D2BE3
:1039F00001D0162B01D12F60B2E7A38943F0400319
:103A0000A381AEE70F69002FAAD0930718BF002348
:103A10000E6808BF4B69F61B0F608B60002E9FDDA0
:103A200033463A462846216AD4F828C0E0470028A1
:103A300006DCA3894FF0FF3043F04003A38190E7F9
:103A40000744361AEAE700BF0100402038B50B6989
:103A500005460C4613B90025284638BD18B18369C0
:103A60000BB9FFF7EBFB144B9C421BD16C68B4F90C
:103A70000C30002BEFD0626ED00704D4990502D42D
:103A8000A06DFFF79EFC28462146FFF75DFF636EA1
:103A90000546DA07E0D4A3899B05DDD4A06DFFF7C6
:103AA00091FCD9E7054B9C4201D1AC68DFE7044BA0
:103AB0009C4208BFEC68DAE7703D0008903D0008C2
:103AC000503D000838B50446084611460022054D11
:103AD0002A601A46FCF702FF431C02D12B6803B18F
:103AE000236038BD7C1B002070B50E46B1F90E1066
:103AF000144600291D4696B008DA0022B6F90C30AB
:103B00002A601A0610D44FF480630EE06A4600F073
:103B1000B7F80028F1DB019A02F47042A2F50053D5
:103B20005A425A412A60EEE740230020236016B033
:103B300070BD00008B8973B59D0706460C4607D5FE
:103B400004F14703236023610123636102B070BD68
:103B50006A4601ABFFF7C8FF009905463046FFF7FC
:103B600069FC48B9B4F90C309A05EFD423F003038B
:103B700043F00203A381E3E70D4BB362A389206006
:103B800043F08003A381009B20616361019B5BB1D3
:103B90003046B4F90E1000F085F828B1A38923F05F
:103BA000030343F00103A381A0890543A581CDE769
:103BB000D53100080148FFF704BC00BF701B00208E
:103BC0000148FFF7FFBB00BF701B002038B505465A
:103BD000002940D051F8043C0C1F002BB8BFE4185A
:103BE000FFF7E8FF1C4A136833B963601460284686
:103BF000BDE83840FFF7E4BFA34208D92068211888
:103C00008B4201BF19685B6809182160EDE71A460D
:103C10005B680BB1A342FAD911685018A0420BD1CE
:103C200020680144501883421160E0D118685B6835
:103C3000014411605360DAE702D90C232B60D6E708
:103C4000206821188B4201BF19685B680918216040
:103C500063605460CBE738BD741B002038B5044660
:103C6000084611460022054D2A601A46FCF710FE50
:103C7000431C02D12B6803B1236038BD7C1B00209C
:103C800038B50023064D0446084611462B60FCF764
:103C90001EFE431C02D12B6803B1236038BD00BF58
:103CA0007C1B002038B50023054D044608462B60D8
:103CB000FCF712FE431C02D12B6803B1236038BD10
:103CC0007C1B0020F8B500BFF8BC08BC9E467047BE
:0C3CD000F8B500BFF8BC08BC9E46704769
:103CDC00520D00470D00477265656E005265640019
:103CEC0064656661756C745461736B00EC3C000820
:103CFC0000000000000000000000000000000000B8
:103D0C00000200001800000000000000000000008D
:103D1C00000000000000000001020304060708096F
:103D2C000000000001020304030406080C10182014
:103D3C003049444C4500546D725100546D722053FF
:103D4C00766300000000000000000000000000008E
:103D5C000000000000000000000000000000000057
:103D6C000000000000000000000000000000000047
:103D7C000000000000000000000000000000000037
:103D8C000000000000000000000000000000000027
:103D9C000000000000000000000000000000000017
:083DAC000000000014000020DB
:083DB400FCC3FF7F01000000C9
:043DBC006501000895
:043DC00041010008B5
:103DC40068FF1F000100000010000000AAAAAAAAB0
:103DD4001400002000000000703D0008903D000821
:103DE400503D00080000000000000000000000003A
:103DF40000000000000000000000000000000000BF
:103E040000000000000000000000000000000000AE
:103E1400000000000000000000000000000000009E
:103E2400000000000000000000000000000000008E
:043E3400000000008A
:0400000508000925C1
:00000001FF
